{
  "contractName": "MeshBounty",
  "abi": [
    {
      "inputs": [],
      "payable": false,
      "stateMutability": "nonpayable",
      "type": "constructor"
    },
    {
      "anonymous": false,
      "inputs": [
        {
          "indexed": true,
          "name": "_addr",
          "type": "address"
        }
      ],
      "name": "ServiceProviderAdded",
      "type": "event"
    },
    {
      "constant": true,
      "inputs": [],
      "name": "getOwner",
      "outputs": [
        {
          "name": "",
          "type": "address"
        }
      ],
      "payable": false,
      "stateMutability": "view",
      "type": "function"
    },
    {
      "constant": false,
      "inputs": [
        {
          "name": "_addr",
          "type": "address"
        }
      ],
      "name": "registerServiceProvider",
      "outputs": [
        {
          "name": "",
          "type": "address"
        }
      ],
      "payable": false,
      "stateMutability": "nonpayable",
      "type": "function"
    },
    {
      "constant": true,
      "inputs": [],
      "name": "getRegisteredProviders",
      "outputs": [
        {
          "name": "",
          "type": "address[]"
        }
      ],
      "payable": false,
      "stateMutability": "view",
      "type": "function"
    }
  ],
  "bytecode": "0x608060405234801561001057600080fd5b50336000806101000a81548173ffffffffffffffffffffffffffffffffffffffff021916908373ffffffffffffffffffffffffffffffffffffffff160217905550610359806100606000396000f300608060405260043610610057576000357c0100000000000000000000000000000000000000000000000000000000900463ffffffff1680632990cfd51461005c5780634ebd5f91146100c8578063893d20e81461014b575b600080fd5b34801561006857600080fd5b506100716101a2565b6040518080602001828103825283818151815260200191508051906020019060200280838360005b838110156100b4578082015181840152602081019050610099565b505050509050019250505060405180910390f35b3480156100d457600080fd5b50610109600480360381019080803573ffffffffffffffffffffffffffffffffffffffff169060200190929190505050610251565b604051808273ffffffffffffffffffffffffffffffffffffffff1673ffffffffffffffffffffffffffffffffffffffff16815260200191505060405180910390f35b34801561015757600080fd5b50610160610304565b604051808273ffffffffffffffffffffffffffffffffffffffff1673ffffffffffffffffffffffffffffffffffffffff16815260200191505060405180910390f35b60608060008090505b6002548160ff16101561024957600160008260ff16815260200190815260200160002060009054906101000a900473ffffffffffffffffffffffffffffffffffffffff16828260ff1681518110151561020057fe5b9060200190602002019073ffffffffffffffffffffffffffffffffffffffff16908173ffffffffffffffffffffffffffffffffffffffff168152505080806001019150506101ab565b819250505090565b60008160016000600254815260200190815260200160002060006101000a81548173ffffffffffffffffffffffffffffffffffffffff021916908373ffffffffffffffffffffffffffffffffffffffff1602179055506002600081548092919060010191905055508173ffffffffffffffffffffffffffffffffffffffff167fcd01559a6bb952358fd75732d1b0722f0b5a507abe65c390bc972be0150211c860405160405180910390a2819050919050565b60008060009054906101000a900473ffffffffffffffffffffffffffffffffffffffff169050905600a165627a7a72305820a758b1abb223323cad78071db32af6cb60476428c8e9247e4ddbca554555fdf10029",
  "source": "pragma solidity ^0.4.24;\n\ncontract MeshBounty {\n\n    address owner;\n    enum ServiceBountyStatus {ACTIVE, CLAIMED, CANCELLED, ENDED}\n    ServiceBountyStatus bountyStatus;\n\n    mapping(uint=>address) registeredNodes;\n    uint registeredNodesCount;//keep an index\n\n    // struct Contribution {\n    //     address contributor;\n    //     uint amount;\n    // }\n\n    // struct Bounty {\n    //     address creator;\n    //     mapping(address=>uint) contributors;\n    //     uint blockEnd;\n    //     uint bountyBlockStart;\n    //     uint bountyServiceStartBlock;\n    //     uint bountyServiceEndBlock;\n    // }\n\n    //mapping(uint=>Bounty) serviceBounties;\n\n\n    //EVENTS\n    constructor() public {\n        owner = msg.sender;\n    }\n\n\n     function getOwner() public view returns(address) { \n        return owner;\n    }\n\n    event ServiceProviderAdded(address indexed _addr);\n\n    function registerServiceProvider(address _addr) external returns(address){\n        registeredNodes[registeredNodesCount] = _addr;\n        registeredNodesCount++;\n        emit ServiceProviderAdded(_addr);\n        return _addr;\n    }\n\n    function getRegisteredProviders() view returns(address[]){\n        //TODO: testing only. Never iterate through uknown length array;.. dont use storage\n\n        address[] memory tempAddresses;\n        for(uint8 i=0; i<registeredNodesCount; i++){\n            tempAddresses[i] = registeredNodes[i];\n        }\n        return tempAddresses;\n        \n    }\n\n    \n\n}",
  "sourcePath": "/Users/benbrown/Desktop/dev/meshing-data/contracts/MeshBounty.sol",
  "compiler": {
    "name": "solc",
    "version": "0.4.24+commit.e67f0147.Emscripten.clang"
  },
  "schemaVersion": "2.0.1",
  "updatedAt": "2018-07-01T12:09:16.587Z"
}