{
  "contractName": "MeshBounty",
  "abi": [
    {
      "constant": true,
      "inputs": [],
      "name": "serviceRequestCount",
      "outputs": [
        {
          "name": "",
          "type": "uint256"
        }
      ],
      "payable": false,
      "stateMutability": "view",
      "type": "function"
    },
    {
      "constant": true,
      "inputs": [],
      "name": "registeredNodesCount",
      "outputs": [
        {
          "name": "",
          "type": "uint256"
        }
      ],
      "payable": false,
      "stateMutability": "view",
      "type": "function"
    },
    {
      "constant": true,
      "inputs": [
        {
          "name": "",
          "type": "uint256"
        }
      ],
      "name": "serviceRequests",
      "outputs": [
        {
          "name": "creator",
          "type": "address"
        },
        {
          "name": "balanceInEscrow",
          "type": "uint256"
        },
        {
          "name": "provider",
          "type": "address"
        },
        {
          "name": "lat",
          "type": "bytes32"
        },
        {
          "name": "lng",
          "type": "bytes32"
        }
      ],
      "payable": false,
      "stateMutability": "view",
      "type": "function"
    },
    {
      "constant": true,
      "inputs": [
        {
          "name": "",
          "type": "uint256"
        }
      ],
      "name": "registeredNodes",
      "outputs": [
        {
          "name": "",
          "type": "address"
        }
      ],
      "payable": false,
      "stateMutability": "view",
      "type": "function"
    },
    {
      "inputs": [],
      "payable": false,
      "stateMutability": "nonpayable",
      "type": "constructor"
    },
    {
      "anonymous": false,
      "inputs": [
        {
          "indexed": true,
          "name": "_addr",
          "type": "address"
        }
      ],
      "name": "ServiceProviderAdded",
      "type": "event"
    },
    {
      "anonymous": false,
      "inputs": [
        {
          "indexed": false,
          "name": "_addre",
          "type": "address"
        },
        {
          "indexed": false,
          "name": "amount",
          "type": "uint256"
        },
        {
          "indexed": false,
          "name": "lat",
          "type": "bytes32"
        },
        {
          "indexed": false,
          "name": "lng",
          "type": "bytes32"
        }
      ],
      "name": "ServiceRequestAdded",
      "type": "event"
    },
    {
      "constant": true,
      "inputs": [],
      "name": "getOwner",
      "outputs": [
        {
          "name": "",
          "type": "address"
        }
      ],
      "payable": false,
      "stateMutability": "view",
      "type": "function"
    },
    {
      "constant": false,
      "inputs": [
        {
          "name": "_addr",
          "type": "address"
        }
      ],
      "name": "registerServiceProvider",
      "outputs": [
        {
          "name": "",
          "type": "address"
        }
      ],
      "payable": false,
      "stateMutability": "nonpayable",
      "type": "function"
    },
    {
      "constant": false,
      "inputs": [
        {
          "name": "_lat",
          "type": "bytes32"
        },
        {
          "name": "_lng",
          "type": "bytes32"
        }
      ],
      "name": "createServiceRequest",
      "outputs": [
        {
          "name": "serviceId",
          "type": "uint256"
        }
      ],
      "payable": true,
      "stateMutability": "payable",
      "type": "function"
    },
    {
      "constant": true,
      "inputs": [],
      "name": "getNumberServiceRequests",
      "outputs": [
        {
          "name": "count",
          "type": "uint256"
        }
      ],
      "payable": false,
      "stateMutability": "view",
      "type": "function"
    },
    {
      "constant": true,
      "inputs": [],
      "name": "getNumberServiceProviders",
      "outputs": [
        {
          "name": "count",
          "type": "uint256"
        }
      ],
      "payable": false,
      "stateMutability": "view",
      "type": "function"
    }
  ],
  "bytecode": "0x608060405234801561001057600080fd5b50336000806101000a81548173ffffffffffffffffffffffffffffffffffffffff021916908373ffffffffffffffffffffffffffffffffffffffff160217905550610744806100606000396000f300608060405260043610610099576000357c0100000000000000000000000000000000000000000000000000000000900463ffffffff16806307e601291461009e57806309ddc963146100c9578063459492bb146100f45780634ebd5f91146101b957806361ca89fa1461023c578063821c38c4146102a9578063893d20e8146102ef578063ba311c8714610346578063dcc38dbd14610371575b600080fd5b3480156100aa57600080fd5b506100b361039c565b6040518082815260200191505060405180910390f35b3480156100d557600080fd5b506100de6103a2565b6040518082815260200191505060405180910390f35b34801561010057600080fd5b5061011f600480360381019080803590602001909291905050506103a8565b604051808673ffffffffffffffffffffffffffffffffffffffff1673ffffffffffffffffffffffffffffffffffffffff1681526020018581526020018473ffffffffffffffffffffffffffffffffffffffff1673ffffffffffffffffffffffffffffffffffffffff168152602001836000191660001916815260200182600019166000191681526020019550505050505060405180910390f35b3480156101c557600080fd5b506101fa600480360381019080803573ffffffffffffffffffffffffffffffffffffffff16906020019092919050505061041e565b604051808273ffffffffffffffffffffffffffffffffffffffff1673ffffffffffffffffffffffffffffffffffffffff16815260200191505060405180910390f35b34801561024857600080fd5b50610267600480360381019080803590602001909291905050506104d1565b604051808273ffffffffffffffffffffffffffffffffffffffff1673ffffffffffffffffffffffffffffffffffffffff16815260200191505060405180910390f35b6102d960048036038101908080356000191690602001909291908035600019169060200190929190505050610504565b6040518082815260200191505060405180910390f35b3480156102fb57600080fd5b506103046106db565b604051808273ffffffffffffffffffffffffffffffffffffffff1673ffffffffffffffffffffffffffffffffffffffff16815260200191505060405180910390f35b34801561035257600080fd5b5061035b610704565b6040518082815260200191505060405180910390f35b34801561037d57600080fd5b5061038661070e565b6040518082815260200191505060405180910390f35b60045481565b60025481565b60036020528060005260406000206000915090508060000160009054906101000a900473ffffffffffffffffffffffffffffffffffffffff16908060010154908060020160009054906101000a900473ffffffffffffffffffffffffffffffffffffffff16908060030154908060040154905085565b60008160016000600254815260200190815260200160002060006101000a81548173ffffffffffffffffffffffffffffffffffffffff021916908373ffffffffffffffffffffffffffffffffffffffff1602179055506002600081548092919060010191905055508173ffffffffffffffffffffffffffffffffffffffff167fcd01559a6bb952358fd75732d1b0722f0b5a507abe65c390bc972be0150211c860405160405180910390a2819050919050565b60016020528060005260406000206000915054906101000a900473ffffffffffffffffffffffffffffffffffffffff1681565b600060046000815480929190600101919050555060a0604051908101604052803373ffffffffffffffffffffffffffffffffffffffff168152602001348152602001600073ffffffffffffffffffffffffffffffffffffffff16815260200184600019168152602001836000191681525060036000600454815260200190815260200160002060008201518160000160006101000a81548173ffffffffffffffffffffffffffffffffffffffff021916908373ffffffffffffffffffffffffffffffffffffffff1602179055506020820151816001015560408201518160020160006101000a81548173ffffffffffffffffffffffffffffffffffffffff021916908373ffffffffffffffffffffffffffffffffffffffff16021790555060608201518160030190600019169055608082015181600401906000191690559050507fd206d21f2916f5591cf2efd3014aa52face4c71feabf731cab94f0993d0613ee33348585604051808573ffffffffffffffffffffffffffffffffffffffff1673ffffffffffffffffffffffffffffffffffffffff1681526020018481526020018360001916600019168152602001826000191660001916815260200194505050505060405180910390a1600454905092915050565b60008060009054906101000a900473ffffffffffffffffffffffffffffffffffffffff16905090565b6000600254905090565b60006004549050905600a165627a7a72305820c0bd09312eb47cd10db8e5ca0e9ed28340fc2b814bd90374ac98e14810358bd10029",
  "source": "pragma solidity ^0.4.24;\n\ncontract MeshBounty {\n\n    address owner;\n    enum ServiceBountyStatus {ACTIVE, CLAIMED, CANCELLED, ENDED}\n    ServiceBountyStatus bountyStatus;\n\n    mapping(uint=>address) public registeredNodes;\n    uint public registeredNodesCount;//keep an index\n\n    // struct Contribution {\n    //     address contributor;\n    //     uint amount;\n    // }\n\n    // struct Bounty {\n    //     address creator;\n    //     mapping(address=>uint) contributors;\n    //     uint blockEnd;\n    //     uint bountyBlockStart;\n    //     uint bountyServiceStartBlock;\n    //     uint bountyServiceEndBlock;\n    // }\n\n\n   //mapping(uint=>Bounty) serviceBounties;\n\n    struct ServiceRequest {\n        address creator;\n        uint balanceInEscrow;\n        address provider;\n        bytes32 lat;\n        bytes32 lng;\n    }\n\n    mapping(uint => ServiceRequest) public serviceRequests;\n    uint public serviceRequestCount;\n\n    //EVENTS\n    constructor() public {\n        owner = msg.sender;\n    }\n\n     function getOwner() public view returns(address) { \n        return owner;\n    }\n\n    event ServiceProviderAdded(address indexed _addr);\n\n    function registerServiceProvider(address _addr) external returns(address){\n        registeredNodes[registeredNodesCount] = _addr;\n        registeredNodesCount++;\n        emit ServiceProviderAdded(_addr);\n        return _addr;\n    }\n\n    event ServiceRequestAdded(address _addre, uint amount, bytes32 lat, bytes32 lng);\n\n    function createServiceRequest (bytes32 _lat, bytes32 _lng) public payable returns (uint serviceId){\n        serviceRequestCount++;\n        \n        serviceRequests[serviceRequestCount] = ServiceRequest({\n            creator: msg.sender,\n            balanceInEscrow: msg.value,\n            provider:0,\n            lat: _lat,\n            lng: _lng\n        });\n        emit ServiceRequestAdded(msg.sender,msg.value,_lat,_lng);\n        return serviceRequestCount;\n    }\n    \n    function getNumberServiceRequests() public view returns (uint count){\n        return serviceRequestCount;\n    }\n\n    function getNumberServiceProviders() public view returns (uint count){\n        return registeredNodesCount;\n    }\n}",
  "sourcePath": "/Users/benbrown/Desktop/dev/meshing-data/contracts/MeshBounty.sol",
  "compiler": {
    "name": "solc",
    "version": "0.4.24+commit.e67f0147.Emscripten.clang"
  },
  "schemaVersion": "2.0.1",
  "updatedAt": "2018-07-01T13:21:59.365Z"
}