{
  "contractName": "MeshBounty",
  "abi": [
    {
      "inputs": [],
      "payable": false,
      "stateMutability": "nonpayable",
      "type": "constructor"
    },
    {
      "constant": true,
      "inputs": [],
      "name": "getOwner",
      "outputs": [
        {
          "name": "",
          "type": "address"
        }
      ],
      "payable": false,
      "stateMutability": "view",
      "type": "function"
    },
    {
      "constant": false,
      "inputs": [],
      "name": "registerServiceProvider",
      "outputs": [
        {
          "name": "",
          "type": "address"
        }
      ],
      "payable": false,
      "stateMutability": "nonpayable",
      "type": "function"
    }
  ],
  "bytecode": "0x608060405234801561001057600080fd5b50336000806101000a81548173ffffffffffffffffffffffffffffffffffffffff021916908373ffffffffffffffffffffffffffffffffffffffff160217905550610159806100606000396000f30060806040526004361061004c576000357c0100000000000000000000000000000000000000000000000000000000900463ffffffff168063893d20e8146100515780638f639655146100a8575b600080fd5b34801561005d57600080fd5b506100666100ff565b604051808273ffffffffffffffffffffffffffffffffffffffff1673ffffffffffffffffffffffffffffffffffffffff16815260200191505060405180910390f35b3480156100b457600080fd5b506100bd610128565b604051808273ffffffffffffffffffffffffffffffffffffffff1673ffffffffffffffffffffffffffffffffffffffff16815260200191505060405180910390f35b60008060009054906101000a900473ffffffffffffffffffffffffffffffffffffffff16905090565b6000905600a165627a7a723058204368d1c4f33ab20d1e4298b27b7c5d77686ccb1ab18382b52f652bae19e778380029",
  "source": "pragma solidity ^0.4.24;\n\ncontract MeshBounty {\n\n    address owner;\n    enum ServiceBountyStatus {ACTIVE, CLAIMED, CANCELLED, ENDED}\n    ServiceBountyStatus bountyStatus;\n\n    struct Contribution {\n        address contributor;\n        uint amount;\n    }\n\n    struct Bounty {\n        address creator;\n        mapping(address=>uint) contributors;\n        uint blockEnd;\n        uint bountyBlockStart;\n        uint bountyServiceStartBlock;\n        uint bountyServiceEndBlock;\n    }\n\n    mapping(uint=>Bounty) serviceBounties;\n\n\n    //EVENTS\n    constructor() public {\n        owner = msg.sender;\n    }\n\n\n     function getOwner() public view returns(address) { \n        return owner;\n    }\n    function registerServiceProvider() returns(address){\n    }\n\n    // function addServiceBounty(uint bountyAmount, uint _blockStart, uint _blockEnd) public payable returns(uint bountyID){\n    //     //create a new service bounty , add it to list\n    //     emit ServiceBountyAdded(msg.sender, bountyAmount, _blockStart, _blockEnd);\n    //     return bountyId;\n    // }\n\n    \n\n}",
  "sourcePath": "/Users/benbrown/Desktop/dev/meshing-data/contracts/MeshBounty.sol",
  "compiler": {
    "name": "solc",
    "version": "0.4.24+commit.e67f0147.Emscripten.clang"
  },
  "schemaVersion": "2.0.1",
  "updatedAt": "2018-07-01T03:48:45.674Z"
}